:100000000A128A11EB2F00308A000408840A820742
:10001000003442344D3450343234383430342034A7
:100020005234653463346F346E346F3463346934FE
:1000300064346F340D340A34003441344834543459
:100040003234303420345234653463346F346E3497
:100050006F346334693464346F340D340A340034DB
:1000600044346934733470346F34733469347434A1
:10007000693476346F3420344934323443340034B4
:100080004E346F3420347234653463346F346E34DC
:100090006F346334693464346F34003452346534FB
:1000A00063346F346E346F346334693464346F3462
:1000B00000344F34633475347034613464346F34D5
:1000C00000344434693467346934743461346C34D2
:1000D000003442344D345034323438343034003407
:1000E000413448345434323430340034523465347A
:1000F0006C346F346A3400344D346134003453341A
:10010000613400344D346934003456346934003479
:1001100044346F3400344A34753400344C3475340C
:020120000034A9
:10012400FA007A0883120313D7007A08D8000A3039
:10013400F0000030F1005808F800F9017808F200E6
:100144007908F3000A128A11E8210A128A11700848
:1001540083120313D8000A307A02031CB228B3288E
:10016400C7280A30F0000030F1005708F800F90100
:100174007808F2007908F3000A128A11D3200A12CF
:100184008A11700883120313D7007A08031DCB2841
:10019400CC28CE28D701D8013030D7073030D80743
:1001A4000800F501F31FD728D828DF28F209F3093E
:1001B400F20A0319F30A0130F500F11FE228E328DB
:1001C400E828F009F109F00A0319F10A700871042A
:1001D4000319ED28EE281B290130F400FA28013018
:1001E4000310F00DF10DFF3E031DF2280130F4075A
:1001F400F11FFD28FE28F12871087302031D04294C
:1002040070087202031C072908290E297008F202DB
:100214007108031CF303F30201300310F10CF00C1A
:10022400FF3E031D0F290130F402031D1A291B2967
:10023400FE28750803191F2920292529F209F30925
:10024400F20A0319F30A7308F1007208F0000800B7
:100254005B30F400E730F300F30B2E29F40B2E2966
:10026400332930300A128A15E8250A128A11063019
:10027400F4003030F300F30B3D29F40B3D2900006A
:100284002130F300F30B442930300A128A15E82593
:100294000A128A112130F300F30B4E2930300A126E
:1002A4008A15E8250A128A110330F300F30B582942
:1002B40038300A128A15E8250A128A110330F3002D
:1002C400F30B622908300A128A15E8250A128A11EA
:1002D4000330F300F30B6C2901300A128A15E82568
:1002E4000A128A110330F4009730F300F30B7829D3
:1002F400F40B78297D290C300A128A15E8250A1294
:100304008A110330F300F30B85290800F600760800
:100314007F3EFB007B088312031388000A128A15B0
:100324006C260A128A11F701F801AB2977087307C2
:1003340084000A128A1103200A128A110A128A15E9
:10034400DD250A128A110130F7070318F80A003074
:10035400F8077708730784000A128A1103200A1227
:100364008A11003A031DB729B82998297408BF3E99
:10037400FB007B088312031388000A128A156C267B
:100384000A128A11F901FA01DA2979087507840039
:100394000A128A1103200A128A110A128A15DD250B
:1003A4000A128A110130F9070318FA0A0030FA0711
:1003B4007908750784000A128A1103200A128A1127
:1003C400003A031DE629E729C7290800F501F11FB2
:1003D400EC29ED29F429F009F109F00A0319F10ACD
:1003E4000130F500F31FF729F829FF29F209F30971
:1003F400F20A0319F30A0130F506F601F701700851
:1004040071040319062A072A3C2A0130F400132A2E
:1004140001300310F00DF10DFF3E031D0B2A0130D6
:10042400F407F11F162A172A0A2A01300310F60DC1
:10043400F70DFF3E031D182A71087302031D242AB9
:1004440070087202031C272A282A2F2A7008F20235
:100454007108031CF303F302761401300310F10C4A
:10046400F00CFF3E031D302A0130F402031D3B2A29
:100474003C2A172A75080319402A412A462AF609F4
:10048400F709F60A0319F70A7708F1007608F0006D
:10049400080083120313E2000A128A1584260A1242
:1004A4008A11831603131114572A582A000083163D
:1004B400031311185E2A5F2A592A0A128A15842600
:1004C4000A128A118312031362089300A53083125F
:1004D4000313E100E10B6C2A6F2A8316031314182B
:1004E400742A752A6F2A0A128A1584260A128A1116
:1004F400872A2830F3000230F4003830F500013048
:100504000A128A1188210A128A1183160313111BF5
:100514008C2A8D2A7B2A0A128A1584260A128A11A9
:100524007C08831203139300A53083120313E100A4
:10053400E10B9A2A9D2A831603131418A22AA32ACC
:100544009D2A111BA62AA72AA32A0A128A158426E1
:100554000A128A117D08831203139300A5308312B3
:100564000313E100E10BB42AB72A8316031314180A
:10057400BC2ABD2AB72A111BC02AC12ABD2A0800D9
:100584000C3083120313E3000B30E4000A30E5005F
:100594003A30E60000300A128A156A270A128A11D4
:1005A400093083120313E3000830E4000730E50048
:1005B4003A30E60001300A128A156A270A128A11B3
:1005C400063083120313E3000530E4000430E50031
:1005D4002030E60002300A128A156A270A128A11AC
:1005E4000C3083120313E3000B30E4000A30E500FF
:1005F4002D30E60006300A128A15B5270A128A1130
:10060400093083120313E3000830E4000730E500E7
:100614002D30E60005300A128A15B5270A128A1110
:10062400063083120313E3000530E4000430E500D0
:100634002030E60004300A128A15B5270A128A11FE
:100644000330FC00D130FD00D0300A128A11372467
:100654000A128A110A128A15EC260A128A118312C6
:1006640003135F080A128A113A230A128A11080036
:10067400F6009E2B0F300A128A1501260A128A11DF
:100684008030F3000A128A159E260A128A11B52BAD
:100694000F300A128A1501260A128A118630F300D5
:1006A4000A128A159E260A128A11B52B0F300A12D5
:1006B4008A1501260A128A117430F3000A128A1567
:1006C4009E260A128A11B52B0F300A128A150126AA
:1006D4000A128A117A30F3000A128A159E260A1227
:1006E4008A11B52B0F300A128A1501260A128A11B3
:1006F4008330F3000A128A159E260A128A11B52B3A
:100704000F300A128A1501260A128A117D30F3006D
:100714000A128A159E260A128A11B52B0F300A1264
:100724008A1501260A128A117730F3000A128A15F3
:100734009E260A128A11B52B7608013A03193C2B1E
:10074400033A03194A2B013A0319582B073A0319A0
:10075400662B013A0319742B033A0319822B013ACD
:100764000319902BB52B0800831603138501880108
:10077400890182308700FF30860007309C00811396
:1007840083120313850186018701880189010730DB
:10079400831603139C009F111F159F140A128A11BC
:1007A4002A210A128A116E30F3000530F400593000
:1007B400F50006300A128A1188210A128A111030B3
:1007C40083120313EF003930EE000D30ED00ED0B12
:1007D400E92BEE0BE92BEF0BE92B01300A128A15FA
:1007E400E8250A128A110A128A151F260A128A118A
:1007F4000A128A150F260A128A110A128A11C222B3
:100804000A128A11831203130618092C0A2CFF2BCF
:10081400083083120313EF009D30EE000530ED0025
:10082400ED0B122CEE0B122CEF0B122C0630831254
:100834000313DD005D080A128A15F3250A128A11D2
:100844000D300A128A15E8250A128A110A128A1131
:10085400CD240A128A1101300A128A15E8250A12D7
:100864008A11FF2B0A128A11002883120313E20053
:100874000A128A1584260A128A1183160313111484
:10088400432C442C00008316031311184A2C4B2CC0
:10089400452C0A128A1584260A128A11831203131C
:1008A40062089300A53083120313E100E10B582C76
:1008B4005B2C831603131418602C612C5B2C0A1216
:1008C4008A1584260A128A11732C2830F300023008
:1008D400F4003830F50001300A128A1188210A1216
:1008E4008A1183160313111B782C792C672C0A1296
:1008F4008A1584260A128A117C0883120313930032
:10090400A53083120313E100E10B862C892C831696
:10091400031314188E2C8F2C892C0A128A15842602
:100924000A128A1183160313111B992C9A2C942CE6
:100934000A128A1584260A128A1183160313911443
:10094400A32CA42C000083160313911CAA2CAB2CFB
:10095400A52C0A128A1584260A128A117D0883128C
:1009640003139300A53083120313E100E10BB82CA9
:10097400BB2C831603131418C02CC12CBB2C0A12D5
:100984008A1584260A128A1183160313111BCB2C91
:10099400CC2CC62C08000A128A11A2260A128A112B
:1009A400831203135D08E300E401E40A0630E50062
:1009B4000530E6000230E7001830E80006300A127D
:1009C4008A1164250A128A11831203135D08E30055
:1009D400E401E40A0930E5000830E600E701E70A2B
:1009E4003B30E80009300A128A1164250A128A1180
:1009F400831203135D08E300E401E40A0C30E5000C
:100A04000B30E600E7013B30E8000C300A128A1193
:100A140064250A128A11831203135C08E30002306E
:100A2400E4000630E5000530E6000430E7001F303E
:100A3400E80006300A128A1164250A128A11831208
:100A440003135C08E3000230E4000930E5000830D9
:100A5400E6000530E7000C30E80009300A128A117C
:100A640064250A128A11831203135C08E30002301E
:100A7400E4000C30E5000B30E6000630E7005030AF
:100A8400E8000C300A128A1164250A128A118312B2
:100A940003135C08E3000330E4001030E5000F307A
:100AA400E6000330E7000730E8000F300A128A112D
:100AB40064250A128A11831203130618622D632D0A
:100AC400CD2C080083120313EC006C086306031D8D
:100AD4006C2D6D2DA12E0619702D712D062E03304F
:100AE40083120313EB008A30EA005530E900E90B66
:100AF400792DEA0B792DEB0B792D01308312031339
:100B0400DB0768085B06031D882D892D8A2DDB0110
:100B14005B08DA005A080A128A1192200A128A1112
:100B2400831203136403031D982D992DB72D6508B3
:100B34000A128A15F3250A128A118312031357081D
:100B44000A128A15DD250A128A1183120313660814
:100B54000A128A15F3250A128A11831203135808FC
:100B64000A128A15DD250A128A1102308312031330
:100B74006406031DBE2DBF2DDD2D65080A128A15DE
:100B840001260A128A118312031357080A128A15BE
:100B9400DD250A128A118312031366080A128A15C4
:100BA40001260A128A118312031358080A128A159D
:100BB400DD250A128A110330831203136406031D10
:100BC400E42DE52DEB2D5B080A128A113A230A1253
:100BD4008A11831203135B08D90059080A128A1573
:100BE40029270A128A11831203136708FC00560886
:100BF400FD00D0300A128A114B220A128A110A12FD
:100C04008A152F260A128A118312031386180B2EB3
:100C14000C2EA12E033083120313EB008A30EA005A
:100C24005530E900E90B142EEA0B142EEB0B142EAD
:100C3400013083120313DB025B08031D222E232ED3
:100C4400252E6808DB005B08DA005A080A128A11AC
:100C540092200A128A11831203136403031D332E94
:100C6400342E522E65080A128A15F3250A128A11A7
:100C74008312031357080A128A15DD250A128A11F2
:100C84008312031366080A128A15F3250A128A11BD
:100C94008312031358080A128A15DD250A128A11D1
:100CA4000230831203136406031D592E5A2E782E24
:100CB40065080A128A1501260A128A11831203137F
:100CC40057080A128A15DD250A128A1183120313A2
:100CD40066080A128A1501260A128A11831203135E
:100CE40058080A128A15DD250A128A110330831264
:100CF40003136406031D7F2E802E862E5B080A12C2
:100D04008A113A230A128A11831203135B08D90049
:100D140059080A128A1529270A128A118312031301
:100D24006708FC005608FD00D0300A128A114B22D5
:100D34000A128A110A128A152F260A128A11080029
:100D440083120313061AA72EA82EF42E06305C0273
:100D5400031CAD2EAE2EF42E12305C020318B32EFB
:100D6400B42EF42E0330F6008A30F5005530F4002A
:100D7400F40BBA2EF50BBA2EF60BBA2EC12E033095
:100D840083120313DC075C080A128A1501260A126F
:100D94008A110D300A128A15E8250A128A111230B6
:100DA400831203135C02031CD82ED92EF42E0630B2
:100DB400DD005D080A128A15F3250A128A110D3026
:100DC4000A128A15E8250A128A110330F6008A30BD
:100DD400F5005530F400F40BED2EF50BED2EF60B6B
:100DE400ED2EF42E83120313061AF92EFA2E462F33
:100DF40006305D02031CFF2E002F462F12305D02C9
:100E04000318052F062F462F0330F6008A30F5000D
:100E14005530F400F40B0C2FF50B0C2FF60B0C2FA4
:100E2400132F033083120313DD075D080A128A159A
:100E3400F3250A128A110D300A128A15E8250A12BE
:100E44008A111230831203135D02031C2A2F2B2FE5
:100E5400462F0630DC005C080A128A1501260A12A5
:100E64008A110D300A128A15E8250A128A110330F4
:100E7400F6008A30F5005530F400F40B3F2FF50BE3
:100E84003F2FF60B3F2F462F8312031386194B2F48
:100E94004C2F982F06305C02031C512F522F982F91
:100EA40012305C020318572F582F982F0330F60086
:100EB4008A30F5005530F400F40B5E2FF50B5E2FED
:100EC400F60B5E2F652F033083120313DC025C08DC
:100ED4000A128A1501260A128A110D300A128A157D
:100EE400E8250A128A110630831203135C020318E0
:100EF4007C2F7D2F982F0F30DD005D080A128A1594
:100F0400F3250A128A110D300A128A15E8250A12ED
:100F14008A110330F6008A30F5005530F400F40BE2
:100F2400912FF50B912FF60B912F982F831203130A
:100F340086199D2F9E2FEA2F06305D02031CA32FD6
:100F4400A42FEA2F12305D020318A92FAA2FEA2F2B
:100F54000330F6008A30F5005530F400F40BB02F5E
:100F6400F50BB02FF60BB02FB72F033083120313FA
:100F7400DD025D080A128A15F3250A128A110D3062
:100F84000A128A15E8250A128A11063083120313FD
:100F94005D020318CE2FCF2FEA2F0F30DC005C0840
:100FA4000A128A1501260A128A110D300A128A15AC
:100FB400E8250A128A110330F6008A30F50055300C
:100FC400F400F40BE32FF50BE32FF60BE32FEA2FDA
:100FD400080083132030840061300A128A15D52555
:100FE4000A128A11A0308400B8300A128A15D52555
:0C0FF4000A128A1183010A128A11B62B1E
:101BAA0064008001840A0406031900340406D62D51
:101BBA00F20072088312031388000A128A15542647
:101BCA000A128A150800F2007208831203138800A9
:101BDA000A128A156C260A128A150800F20072087F
:101BEA007F3EF30073088312031388000A128A15D2
:101BFA006C260A128A150800F2007208BF3EF3002A
:101C0A0073088312031388000A128A156C260A12B3
:101C1A008A1508000730FC009030FD00D0300A1207
:101C2A008A114B220A128A150A128A152F260A12BB
:101C3A008A1508008316031387150716283083129E
:101C4A000313940083160313910109309300803023
:101C5A00940008000A128A1584260A128A15831625
:101C6A0003131115382E392E000083160313141E80
:101C7A003F2E402E3A2E0800F200F101721C462E29
:101C8A00472E492E7008F1070310F00D0310F20CCD
:101C9A007208031D512E522E432E7108080083121A
:101CAA000313091409150730F1007D30F000F00B19
:101CBA005C2EF10B5C2E8312031309110730F1001D
:101CCA007D30F000F00B672EF10B672E08008312AF
:101CDA000313091009150730F1007D30F000F00BED
:101CEA00742EF10B742E8312031309110730F100BD
:101CFA007D30F000F00B7F2EF10B7F2E0800912E25
:101D0A003430F3000530F4005130F50006300A1281
:101D1A008A1188210A128A15831603131419962E1A
:101D2A00972E852E11081F39031D9C2E9D2E852E58
:101D3A000800F401F501B42E7408730784000A122E
:101D4A008A1103200A128A150A128A15DD250A1237
:101D5A008A150130F4070318F50A0030F5077408EC
:101D6A00730784000A128A1103200A128A15003A9C
:101D7A00031DC02EC12EA12E0800F1007108831286
:101D8A000313D8007108D7005808F0000430031074
:101D9A00F00CFF3E031DCC2E7008D8003030D80757
:101DAA000A305702031CDA2EDB2EE92E5708F00000
:101DBA0003300310F00DFF3E031DDE2E0310700DDD
:101DCA00D700D70E0F30D7053030D70708000A12D0
:101DDA008A1584260A128A15831603139115F52E7D
:101DEA00F62E0000831603139119FC2EFD2EF72EF2
:101DFA000A128A1584260A128A1583160313911663
:101E0A00062F072F00000A128A1584260A128A153D
:101E1A00831603131116112F122F00000A128A15A6
:101E2A0084260A128A158316031311151C2F1D2FD7
:101E3A00000083160313141E232F242F1E2F831230
:101E4A0003131308DF000800FA007A088312031349
:101E5A00D5007A08D4000A30F0000030F1005508A5
:101E6A00F800F9017808F2007908F3000A128A11D9
:101E7A00E8210A128A15700883120313D50055083F
:101E8A00E0005808F80003300310F80DFF3E031D68
:101E9A00492F0310780DD5000A307A02031C562FF9
:101EAA00572F662F0A30F00060080A128A15412659
:101EBA000A128A15F8007808FA027A0883120313BC
:101ECA00D40055085407D600080083120313E7000C
:101EDA006708FC00D130FD00D0300A128A1137247D
:101EEA000A128A150A128A15EC260A128A15831210
:101EFA0003135F080A128A15C2260A128A15831268
:101F0A00031363080A128A15F3250A128A15831223
:101F1A00031357080A128A15DD250A128A15831235
:101F2A00031364080A128A15F3250A128A15831202
:101F3A00031358080A128A15DD250A128A15831214
:101F4A00031365080A128A15F3250A128A158312E1
:101F5A00031366080A128A15DD250A128A15080073
:101F6A0083120313E7006708FC00D130FD00D0306C
:101F7A000A128A1137240A128A150A128A15EC26BD
:101F8A000A128A15831203135F080A128A15C226D7
:101F9A000A128A158312031363080A128A15012684
:101FAA000A128A158312031357080A128A15DD25A5
:101FBA000A128A158312031364080A128A15012663
:101FCA000A128A158312031358080A128A15DD2584
:101FDA000A128A158312031365080A128A15012642
:101FEA000A128A158312031366080A128A15DD2556
:061FFA000A128A1508001E
:08400000FF3FFF3FFF3FFF3FC0
:02400E00713F00
:00000001FF
